:1080000012800E12802612801612803D80F27801B6
:1080100079017A00C322780179007A01C322E8331A
:10802000F87901500122128074128084E933F950EA
:10803000F5C3111E22E833F87A0150012212807430
:10804000128084EA33FA50F5C311352278007900A2
:108050007A001280742278FF79FF7A0012807422ED
:1080600078FF79007AFF1280742278FF79FF7AFF17
:108070001280742290FFC5E9F090FFC6EAF090FFED
:10808000C7E8F0227D017EFF7FFFDFFEDEFADDF62E
:0180900022CD
:00000001FF
