:1000000075203812008975200E12008975200112A2
:1000100000897520061200897522017523021200DD
:100020006B9000A585822585832675240E12004AD3
:1000300075220275230212006B9000B0858225851F
:10004000832675240E12004A80FE7D008525828558
:100050002683ED93F5211200890DEDB524EE1200F3
:1000600062227D077E40DEFEDDFA22E522B4010C2D
:1000700074802523F520120089020088B4020974D7
:10008000C02523F5201200892212009D90FFE0E593
:1000900020F02212009D90FFE1E521F02290FFE286
:1000A000E020E7F922444F594F555242455354211D
:0B00B000594F5543414E444F49542125
:00000001FF
