:1000000075203812007D75200E12007D75200112BA
:10001000007D75200612007D7522017523021200F5
:100020005F90009985822585832675240E12004AEB
:1000300075220275230212005F9000A48582258537
:10004000832675240E12004A80FE7D008525828558
:100050002683ED93F52112007D0DEDB524EE22E50A
:1000600022B4010C74802523F52012007D02007C4F
:10007000B4020974C02523F52012007D22120091DC
:1000800090FFE0E520F02212009190FFE1E521F0E1
:100090002290FFE2E020E7F922444F594F555242A7
:0F00A00045535421594F5543414E444F49542124
:00000001FF
